:0400000002002132A7
:03000B00020133BC
:0100130032BA
:03001B000201AE31
:10007A0075100075110A7512007513007514007554
:10008A0015007516007517C07518F97519A4751A33
:10009A00B0751B99751C92751D82751ED8751F80C7
:1000AA007520987521C07522C07523C07524C07546
:1000BA0025647526647527A47528C07529A4752A30
:1000CA00C0752BC0752C82752DF9752E92752F1D52
:0300DA0002001E03
:03001E000202A437
:1000DD00AD82AE83AFF07B007C00C3EB9404EC6487
:1000ED0080948050408B028AF005F074F1800225D7
:1000FD00E0D5F0FBF4F5A0EB2DF8EC3EF98F02887E
:10010D008289838AF012058EF58079007A00C3E921
:10011D0094E8EA9403500709B900F30A80F00BBB89
:10012D0000B80C80B522C0E0C0F0C082C083C0D042
:10013D0075D008758CCF758A2C05107450B5100FBD
:10014D000512751000743CB51205751200051105E8
:10015D0013742DB513280515E51575F002A4241C8F
:10016D00F582740635F0F583E493FEA3E493FF8FD7
:10017D008D8E8B751300E52FB5150375150074E87D
:10018D002511500375110074C4251250037512000A
:10019D00E5167002F515D0D0D083D082D0F0D0E026
:1001AD0032C0E0C0F0C082C083C0D075D008E51564
:1001BD0075F002A4241CF582740635F0F583E493E2
:1001CD00FEA3E493FF8F8D8E8BE525B5110BE526F0
:1001DD00B512067516017514007401B51605E5B056
:1001ED00F4F5B0D0D0D083D082D0F0D0E032E4FEA0
:1001FD00FFF538F539C3E5389404E539648094800A
:10020D0040030202A0AB388BF005F074018002258B
:10021D00E0D5F0FBF4F590AA905302F07B00BAF014
:10022D0005BB0002805EAA907B0074F05AF53A8BF4
:10023D003B780079007A007B00C3EA9404EB64807C
:10024D00948050408AF005F07C107D008006EC2CE7
:10025D00FCED33FDD5F0F7E53A5204E53B5205ECE4
:10026D004D70168E057403C39D25E025E0FD0D0D23
:10027D000D8804EDC39CF582220ABA00010B8A0099
:10028D008B0180B50538E4B538020539AE38AF3984
:10029D0002020275821022758CCF758A2C75891118
:1002AD0075885075A88A7530107531007D008D32B6
:1002BD00ED7068AA11FB75380A8B398A828B83C061
:1002CD00051205E0E5822417F987038B21AA117B1E
:1002DD000075380A8B398A828B831205AAE5822430
:1002ED0017F987038B22AA127B0075380A8B398A7E
:1002FD00828B831205E0E5822417F987038B23AAED
:10030D00127B0075380A8B398A828B831205AAAA53
:10031D0082D005EA2417F987038B2490002175F00C
:10032D0040C0051200DD1201FB858237D005ED704E
:10033D0003853730ED600302044FE53024F64003AA
:10034D0002044F74F02530500302044F8537307D81
:10035D0001740AB537028005740BB5371D75310070
:10036D007A007E00C3EA9404EE9400500DEA242135
:10037D00F876BF0ABA00ED0E80EA740CB5300E7532
:10038D0016007514007D00752564752664740DB511
:10039D003024E4F516FDE514701CAE12740A2EF52A
:1003AD0026AE26BE3C00400BEE24C4F526E525FE08
:1003BD0004F525751401740FB53002800302044F46
:1003CD007E00C0061201FBAA82D006BA1002807010
:1003DD007A007B00C3EA9404EB94005013EA2421C5
:1003ED00F9EA2427F88607A7070ABA00E70B80E485
:1003FD0090002175F040C0061200DDD0060EBE78CB
:10040D00C18E07EF240F40347A007B00C3EA9404B9
:10041D00EB94005017EA2421F98A0474042C242744
:10042D00F88604A7040ABA00E30B80E0900021755A
:10043D00F040C0071200DDD0070F80C77E0080821C
:10044D007D00AF37BD010280030202BD740AB530D5
:10045D000474018001E4FE700A740BB53002800350
:10046D000202BDBF0A0040030202BDAF31BF04024C
:10047D008045C007C0061201FBAC82D006D007BC78
:10048D001002801AE5327016EF2421F9EC2417F8CA
:10049D008603A703EF2433F8A6040F753201BC10B1
:1004AD000375320090002175F040C007C0061200A0
:1004BD00DDD006D00780B68F31EE602EE53375F0B6
:1004CD000AA42534F511E53575F00AA42536F51283
:1004DD00AE127F0075380A8F398E828F831205AA6E
:1004ED00E582FE2417F987078F24740BB53017E5C5
:1004FD003375F00AA42534F525E53575F00AA4FF0A
:0B050D00E536FE2FF5267D000202BD42
:10061C0005FB8CF85CF915FA68FA05FB8CF88CF87C
:10062C0090FB68FA05FB90FB0CFC46FC8CF88CF8F4
:10063C0068FA05FB68FA15FA5CF915FA68FA15FA06
:0C064C005CF98CF85CF915FA8CF85CF98C
:06005000E478FFF6D8FD84
:10002E007900E94400601B7A00900658780175A0AB
:10003E0000E493F2A308B8000205A0D9F4DAF27531
:02004E00A0FF11
:10051800E538453960467A01E53825E0F538E539AA
:10052800334012F539E5829538E583953940030A59
:1005380080E6C3E53913F539E53813F538C3E582A4
:100548009538F5F0E58395394005F58385F082C344
:0D055800E53913F539E53813F538DAE122FD
:100056007800E84400600A790175A000E4F309D845
:10006600FC7800E84400600C7900900001E4F0A3FD
:04007600D8FCD9FADF
:100565007A10E4FBFCE58225E0F582E58333F5832B
:10057500EB33FBEC33FCEB9538F5F0EC95394006A5
:09058500FCABF0438201DADD2237
:0D00210075813B120618E582600302001E87
:10058E0020F71430F6148883A88220F507E6A88396
:10059E0075830022E280F7E49322E022C2D5E58340
:1005AE0030E70DD2D5E4C39582F582E49583F583C9
:1005BE00E53930E70BE4C39538F538E49539F5396C
:1005CE0012051830D50BE4C39582F582E49583F5B8
:1005DE008322C2D5E58330E70DD2D5E4C39582F5EB
:1005EE0082E49583F583E53930E70DB2D5E4C39502
:1005FE0038F538E49539F53912056530D50BE4C375
:0E060E009582F582E49583F5832275820022A1
:00000001FF
